{"abi":[{"type":"receive","stateMutability":"payable"},{"type":"function","name":"deposit","inputs":[],"outputs":[],"stateMutability":"payable"},{"type":"function","name":"getBalance","inputs":[{"name":"user","type":"address","internalType":"address"}],"outputs":[{"name":"","type":"uint256","internalType":"uint256"}],"stateMutability":"view"},{"type":"function","name":"getContractBalance","inputs":[],"outputs":[{"name":"","type":"uint256","internalType":"uint256"}],"stateMutability":"view"},{"type":"function","name":"withdraw","inputs":[{"name":"amount","type":"uint256","internalType":"uint256"}],"outputs":[],"stateMutability":"nonpayable"},{"type":"event","name":"Deposit","inputs":[{"name":"user","type":"address","indexed":true,"internalType":"address"},{"name":"amount","type":"uint256","indexed":false,"internalType":"uint256"}],"anonymous":false},{"type":"event","name":"Withdraw","inputs":[{"name":"user","type":"address","indexed":true,"internalType":"address"},{"name":"amount","type":"uint256","indexed":false,"internalType":"uint256"}],"anonymous":false}],"bytecode":{"object":"0x6080604052348015600e575f5ffd5b506109198061001c5f395ff3fe608060405260043610610042575f3560e01c80632e1a7d4d1461012f5780636f9fb98a14610157578063d0e30db014610181578063f8b2cb4f1461018b5761012b565b3661012b575f3411610089576040517f08c379a000000000000000000000000000000000000000000000000000000000815260040161008090610584565b60405180910390fd5b345f5f3373ffffffffffffffffffffffffffffffffffffffff1673ffffffffffffffffffffffffffffffffffffffff1681526020019081526020015f205f8282546100d491906105d8565b925050819055503373ffffffffffffffffffffffffffffffffffffffff167fe1fffcc4923d04b559f4d29a8bfc6cda04eb5b0d3c460751c2402c5c5cc9109c34604051610121919061061a565b60405180910390a2005b5f5ffd5b34801561013a575f5ffd5b5061015560048036038101906101509190610661565b6101c7565b005b348015610162575f5ffd5b5061016b6103d4565b604051610178919061061a565b60405180910390f35b6101896103db565b005b348015610196575f5ffd5b506101b160048036038101906101ac91906106e6565b6104bf565b6040516101be919061061a565b60405180910390f35b5f8111610209576040517f08c379a000000000000000000000000000000000000000000000000000000000815260040161020090610781565b60405180910390fd5b805f5f3373ffffffffffffffffffffffffffffffffffffffff1673ffffffffffffffffffffffffffffffffffffffff1681526020019081526020015f20541015610288576040517f08c379a000000000000000000000000000000000000000000000000000000000815260040161027f906107e9565b60405180910390fd5b805f5f3373ffffffffffffffffffffffffffffffffffffffff1673ffffffffffffffffffffffffffffffffffffffff1681526020019081526020015f205f8282546102d39190610807565b925050819055505f3373ffffffffffffffffffffffffffffffffffffffff16826040516102ff90610867565b5f6040518083038185875af1925050503d805f8114610339576040519150601f19603f3d011682016040523d82523d5f602084013e61033e565b606091505b5050905080610382576040517f08c379a0000000000000000000000000000000000000000000000000000000008152600401610379906108c5565b60405180910390fd5b3373ffffffffffffffffffffffffffffffffffffffff167f884edad9ce6fa2440d8a54cc123490eb96d2768479d49ff9c7366125a9424364836040516103c8919061061a565b60405180910390a25050565b5f47905090565b5f341161041d576040517f08c379a000000000000000000000000000000000000000000000000000000000815260040161041490610584565b60405180910390fd5b345f5f3373ffffffffffffffffffffffffffffffffffffffff1673ffffffffffffffffffffffffffffffffffffffff1681526020019081526020015f205f82825461046891906105d8565b925050819055503373ffffffffffffffffffffffffffffffffffffffff167fe1fffcc4923d04b559f4d29a8bfc6cda04eb5b0d3c460751c2402c5c5cc9109c346040516104b5919061061a565b60405180910390a2565b5f5f5f8373ffffffffffffffffffffffffffffffffffffffff1673ffffffffffffffffffffffffffffffffffffffff1681526020019081526020015f20549050919050565b5f82825260208201905092915050565b7f4465706f73697420616d6f756e74206d757374206265206772656174657220745f8201527f68616e2030000000000000000000000000000000000000000000000000000000602082015250565b5f61056e602583610504565b915061057982610514565b604082019050919050565b5f6020820190508181035f83015261059b81610562565b9050919050565b5f819050919050565b7f4e487b71000000000000000000000000000000000000000000000000000000005f52601160045260245ffd5b5f6105e2826105a2565b91506105ed836105a2565b9250828201905080821115610605576106046105ab565b5b92915050565b610614816105a2565b82525050565b5f60208201905061062d5f83018461060b565b92915050565b5f5ffd5b610640816105a2565b811461064a575f5ffd5b50565b5f8135905061065b81610637565b92915050565b5f6020828403121561067657610675610633565b5b5f6106838482850161064d565b91505092915050565b5f73ffffffffffffffffffffffffffffffffffffffff82169050919050565b5f6106b58261068c565b9050919050565b6106c5816106ab565b81146106cf575f5ffd5b50565b5f813590506106e0816106bc565b92915050565b5f602082840312156106fb576106fa610633565b5b5f610708848285016106d2565b91505092915050565b7f5769746864726177616c20616d6f756e74206d757374206265206772656174655f8201527f72207468616e2030000000000000000000000000000000000000000000000000602082015250565b5f61076b602883610504565b915061077682610711565b604082019050919050565b5f6020820190508181035f8301526107988161075f565b9050919050565b7f496e73756666696369656e742062616c616e63650000000000000000000000005f82015250565b5f6107d3601483610504565b91506107de8261079f565b602082019050919050565b5f6020820190508181035f830152610800816107c7565b9050919050565b5f610811826105a2565b915061081c836105a2565b9250828203905081811115610834576108336105ab565b5b92915050565b5f81905092915050565b50565b5f6108525f8361083a565b915061085d82610844565b5f82019050919050565b5f61087182610847565b9150819050919050565b7f5769746864726177616c207472616e73666572206661696c65640000000000005f82015250565b5f6108af601a83610504565b91506108ba8261087b565b602082019050919050565b5f6020820190508181035f8301526108dc816108a3565b905091905056fea264697066735822122080b767b8b09bd81826ab597b5c3fae6e388b448b4215808fb320d32d1ad6feab64736f6c63430008210033","linkReferences":{}},"methodIdentifiers":{"deposit()":"d0e30db0","getBalance(address)":"f8b2cb4f","getContractBalance()":"6f9fb98a","withdraw(uint256)":"2e1a7d4d"},"id":19}